:03000000020FF3F9
:0C0FF300787FE4F6D8FD75812002103AEA
:10107F004E2D50617373776F72642D0050617373CF
:10108F00776F72642D00436F7272656374205072B4
:10109F00657373203120746F20007265736574203F
:1010AF0070617373776F7264004E2D506173737735
:1010BF006F72642D2D00496E636F727265637400D9
:0B115400051A3132333400021F000086
:0610CF00D2B17F017E009A
:1010D500E4FDFCC3ED9FEE6480F8EC648098501449
:1010E500E4FBFA0BBB00010AEBF44A70F60DBD00F8
:0410F500010C80DF8B
:0110F90022D4
:101123007437120E367F371211607FC87E0012109B
:03113300D57F065F
:0A1136008FA0C2B01210CFC2B12288
:0A1160008FA0D2B01210CFC2B1224E
:0610FA007BFF7A10798BE8
:101100008B178A188919AB17AA18A919120E1DFF77
:10111000601012116074012519F519E43518F518DD
:0311200080E42246
:101140007F011211367F381211367F0E1211367F51
:0411500080021136D2
:040B56008E128F1359
:100B5A00C2B2C2B375140075150075161A12114087
:100B6A007BFF7A10797F121100E4F51EC3E5139416
:100B7A0004E512648094804003020DFF7590FEAF75
:100B8A0090EF64EE701AAB14AA15A9168513828524
:100B9A0012831211230513E51370020512020C1DAC
:100BAA00AF90EF64DE7020AB14AA15A916851382E4
:100BBA008512837438120E367F3812112A0513E50E
:100BCA001370500512804CAF90EF64BE7020AB14C6
:100BDA00AA15A9168513828512837439120E367FD7
:100BEA003912112A0513E513702905128025AF90D1
:100BFA00EF647E701EAB14AA15A91685138285129E
:100C0A0083742F120E367F2F12112A0513E51370E3
:100C1A000205127590FDAF90EF64ED7021AB14AA36
:100C2A0015A9168513828512837434120E367F3401
:100C3A0012112A0513E513702A0512020CBBAF9094
:100C4A00EF64DD7020AB14AA15A9168513828512EC
:100C5A00837435120E367F3512112A0513E5137087
:100C6A00020512804CAF90EF64BD7020AB14AA1538
:100C7A00A9168513828512837436120E367F3612B0
:100C8A00112A0513E513702905128025AF90EF6428
:100C9A007D701EAB14AA15A916851382851283745A
:100CAA002A120E367F2A12112A0513E5137002053D
:100CBA00127590FBAF90EF64EB7021AB14AA15A9E3
:100CCA00168513828512837431120E367F31121102
:100CDA002A0513E513702A0512020D59AF90EF6425
:100CEA00DB7020AB14AA15A91685138285128374AA
:100CFA0032120E367F3212112A0513E513700205DD
:100D0A0012804CAF90EF64BB7020AB14AA15A916E1
:100D1A008513828512837433120E367F3312112A99
:100D2A000513E513702905128025AF90EF647B70D7
:100D3A001EAB14AA15A916851382851283742D1267
:100D4A000E367F2D12112A0513E51370020512754E
:100D5A0090F7AF90EF64E77021AB14AA15A9168536
:100D6A0013828512837443120E367F4312112A05A9
:100D7A0013E513702A0512020B76AF90EF64D77051
:100D8A0021AB14AA15A91685138285128374301211
:100D9A000E367F3012112A0513E51370020512026E
:100DAA000B76AF90EF64B77021AB14AA15A916851C
:100DBA001382851283743D120E367F3D12112A0565
:100DCA0013E51370020512020B76AF90EF64776099
:100DDA0003020B76AB14AA15A91685138285128312
:100DEA00742B120E367F2B12112A0513E51370028B
:100DFA000512020B76E513640445126003020B76B2
:100E0A007F64FE1210D57F01121136C2B2C2B3E45A
:020E1A00FEFFD9
:010E1C0022B3
:10080000E4F50DF50EF50F75100075110812114085
:100810001210FA7580FFE4F50CC3E50E9404E50DA3
:10082000648094804003020AA27590FEAF90EF644A
:10083000EE701AAB0FAA10A911850E82850D8312D6
:100840001123050EE50E7002050D0208C0AF90EFF2
:1008500064DE7020AB0FAA10A911850E82850D836E
:100860007438120E367F3812112A050EE50E7050BC
:10087000050D804CAF90EF64BE7020AB0FAA10A99D
:1008800011850E82850D837439120E367F3912114F
:100890002A050EE50E7029050D8025AF90EF647EC8
:1008A000701EAB0FAA10A911850E82850D83742FBF
:1008B000120E367F2F12112A050EE50E7002050D5D
:1008C0007590FDAF90EF64ED7021AB0FAA10A911E8
:1008D000850E82850D837434120E367F3412112AF0
:1008E000050EE50E702A050D02095EAF90EF64DD7E
:1008F0007020AB0FAA10A911850E82850D83743567
:10090000120E367F3512112A050EE50E7002050D06
:10091000804CAF90EF64BD7020AB0FAA10A9118579
:100920000E82850D837436120E367F3612112A051B
:100930000EE50E7029050D8025AF90EF647D701EC9
:10094000AB0FAA10A911850E82850D83742A120E91
:10095000367F2A12112A050EE50E7002050D7590DC
:10096000FBAF90EF64EB7021AB0FAA10A911850EBD
:1009700082850D837431120E367F3112112A050ED5
:10098000E50E702A050D0209FCAF90EF64DB7020C4
:10099000AB0FAA10A911850E82850D837432120E39
:1009A000367F3212112A050EE50E7002050D804CBD
:1009B000AF90EF64BB7020AB0FAA10A911850E8217
:1009C000850D837433120E367F3312112A050EE51E
:1009D0000E7029050D8025AF90EF647B701EAB0F64
:1009E000AA10A911850E82850D83742D120E367FF3
:1009F0002D12112A050EE50E7002050D7590F7AF48
:100A000090EF64E77021AB0FAA10A911850E8285C3
:100A10000D837443120E367F4312112A050EE50E24
:100A2000702A050D020819AF90EF64D77021AB0F43
:100A3000AA10A911850E82850D837430120E367F9F
:100A40003012112A050EE50E7002050D020819AFCD
:100A500090EF64B77021AB0FAA10A911850E8285A3
:100A60000D83743D120E367F3D12112A050EE50EE0
:100A70007002050D020819AF90EF64776003020859
:100A800019AB0FAA10A911850E82850D83742B1244
:100A90000E367F2B12112A050EE50E7002050D028F
:100AA0000819E50E6404450D6003020819781A7CE4
:100AB00000FDFB7A007908120FD6EF3395E04F70F6
:100AC000667FC8FE1210D57F011211367BFF7A10A7
:100AD00079951211007FC11211367BFF7A1079A926
:100AE0001211007FC0121136D2B2C2B37590FBAFA3
:100AF00090EF64EB70AC7FC8FE1210D57F0112112D
:100B0000367BFF7A1079B81211007FC87E00121070
:100B1000D5E4F50DF50E7F13121136E4FFFE120B2E
:100B2000561210FA020AA27FC01211367BFF7A1009
:100B300079C51211007F647E001210D57F01121159
:100B4000361210FAE4F50DF50EC2B2C2B37F64FEA0
:060B50001210D5020AA2FA
:100FFF00020800E493A3F8E493A34003F68001F200
:10100F0008DFF48029E493A3F85407240CC8C333F2
:10101F00C4540F4420C8834004F456800146F6DFC1
:10102F00E4800B0102040810204080901154E47EEC
:10103F00019360BCA3FF543F30E509541FFEE493B6
:10104F00A360010ECF54C025E060A840B8E493A37D
:10105F00FAE493A3F8E493A3C8C582C8CAC583CAA8
:10106F00F0A3C8C582C8CAC583CADFE9DEE780BE60
:01115F00008F
:100E1D00BB010689828A83E0225002E722BBFE02D3
:090E2D00E32289828A83E4932206
:100E3600F8BB010DE58229F582E5833AF583E8F0F2
:100E4600225006E92582C8F622BBFE05E92582C89E
:020E5600F22286
:100E5800E3F5F009E208B5F06D606B80F3E3F5F0B7
:100E680009E608B5F060605E80F387F009E608B52A
:100E7800F054605280F487F009E208B5F048604603
:100E880080F488828C8387F009E0A3B5F038603657
:100E980080F488828C8387F009E493A3B5F02760F7
:100EA8002580F388828C83E3F5F009E0A3B5F0167A
:100EB800601480F388828C83E3F5F009E493A3B58A
:100EC800F004600280F2020F83808580E7808E80C4
:100ED800D2803C8015806C807E809B80B5808B8022
:100EE800A1804F8070803A020F8F89828A83ECFA42
:100EF800E493F5F0A3C8C582C8CCC583CCE493A31A
:100F0800C8C582C8CCC583CCB5F070606E80E18955
:100F1800828A83E493F5F0A3E208B5F05E605C8012
:100F2800F289828A83E0F5F0A3E608B5F04D604BBC
:100F380080F389828A83E0F5F0A3E208B5F03C608B
:100F48003A80F389828A83E493F5F0A3E608B5F042
:100F58002A602880F2805389828A83ECFAE493F528
:100F6800F0A3C8C582C8CCC583CCE0A3C8C582C8D5
:100F7800CCC583CCB5F004600280E27FFFB5F002F7
:100F88000F2240027F012289828A83ECFAE0F5F081
:100F9800A3C8C582C8CCC583CCE0A3C8C582C8CCC9
:100FA800C583CCB5F0D560D380E389828A83ECFA17
:100FB800E0F5F0A3C8C582C8CCC583CCE493A3C828
:100FC800C582C8CCC583CCB5F0B160AF80E288F0EB
:100FD800ED2402B4040050A3F582EB2402B404000B
:0B0FE80050992323458223900ED17303
:00000001FF
