:03000000020FF0FC
:0C0FF000787FE4F6D8FD758120021037F0
:10107C004E2D50617373776F72642D0050617373D2
:10108C00776F72642D00436F7272656374205072B7
:10109C00657373203120746F200072657365742042
:1010AC0070617373776F7264004E2D506173737738
:1010BC006F72642D2D00496E636F727265637400DC
:0B115300051A3132333400021F000087
:0810CC00C280D2B17F017E0059
:1010D400E4FDFCC3ED9FEE6480F8EC64809850144A
:1010E400E4FBFA0BBB00010AEBF44A70F60DBD00F9
:0410F400010C80DF8C
:0110F80022D5
:101122007437120E337F371211697FC87E00121096
:03113200D47F0661
:0A1135008FA0C2B01210CEC2B1228A
:0A115F008FA0C2B01210CCC2B12262
:0A1169008FA0D2B01210CEC2B12246
:0A1173008FA0D2B01210CCC2B1223E
:0610F9007BFF7A107988EC
:1010FF008B178A188919AB17AA18A919120E1AFF7C
:10110F00601012116974012519F519E43518F518D5
:03111F0080E42247
:10113F007F011211357F381211357F0E1211357F55
:04114F0080021135D4
:040B53008E128F135C
:100B5700C2B2C2B375140075150075161A12113F8B
:100B67007BFF7A10797C1210FFE4F51EC3E513941E
:100B770004E512648094804003020DFC7590FEAF7B
:100B870090EF64EE701AAB14AA15A9168513828527
:100B970012831211220513E51370020512020C1AB3
:100BA700AF90EF64DE7020AB14AA15A916851382E7
:100BB7008512837438120E337F381211290513E515
:100BC7001370500512804CAF90EF64BE7020AB14C9
:100BD700AA15A9168513828512837439120E337FDD
:100BE700391211290513E513702905128025AF90D5
:100BF700EF647E701EAB14AA15A9168513828512A1
:100C070083742F120E337F2F1211290513E51370EA
:100C17000205127590FDAF90EF64ED7021AB14AA39
:100C270015A9168513828512837434120E337F3407
:100C37001211290513E513702A0512020CB8AF909B
:100C4700EF64DD7020AB14AA15A9168513828512EF
:100C5700837435120E337F351211290513E513708E
:100C6700020512804CAF90EF64BD7020AB14AA153B
:100C7700A9168513828512837436120E337F3612B6
:100C870011290513E513702905128025AF90EF642C
:100C97007D701EAB14AA15A916851382851283745D
:100CA7002A120E337F2A1211290513E51370020544
:100CB700127590FBAF90EF64EB7021AB14AA15A9E6
:100CC700168513828512837431120E337F31121108
:100CD700290513E513702A0512020D56AF90EF642C
:100CE700DB7020AB14AA15A91685138285128374AD
:100CF70032120E337F321211290513E513700205E4
:100D070012804CAF90EF64BB7020AB14AA15A916E4
:100D17008513828512837433120E337F33121129A0
:100D27000513E513702905128025AF90EF647B70DA
:100D37001EAB14AA15A916851382851283742D126A
:100D47000E337F2D1211290513E513700205127555
:100D570090F7AF90EF64E77021AB14AA15A9168539
:100D670013828512837443120E337F4312112905B0
:100D770013E513702A0512020B73AF90EF64D77057
:100D870021AB14AA15A91685138285128374301214
:100D97000E337F301211290513E513700205120275
:100DA7000B73AF90EF64B77021AB14AA15A9168522
:100DB7001382851283743D120E337F3D121129056C
:100DC70013E51370020512020B73AF90EF6477609F
:100DD70003020B73AB14AA15A91685138285128318
:100DE700742B120E337F2B1211290513E513700292
:100DF7000512020B73E513640445126003020B73BB
:100E07007F64FE1210D47F01121135C2B2C2B3E45F
:020E1700FEFFDC
:010E190022B6
:10080000E4F50DF50EF50F75100075110812113F86
:100810001210F9E4F50CC3E50E9404E50D64809420
:10082000804003020A9F7590FEAF90EF64EE701A4D
:10083000AB0FAA10A911850E82850D831211220516
:100840000EE50E7002050D0208BDAF90EF64DE707C
:1008500020AB0FAA10A911850E82850D8374381262
:100860000E337F38121129050EE50E7050050D80EC
:100870004CAF90EF64BE7020AB0FAA10A911850E8B
:1008800082850D837439120E337F39121129050EBA
:10089000E50E7029050D8025AF90EF647E701EABCC
:1008A0000FAA10A911850E82850D83742F120E33A5
:1008B0007F2F121129050EE50E7002050D7590FDB2
:1008C000AF90EF64ED7021AB0FAA10A911850E82D5
:1008D000850D837434120E337F34121129050EE511
:1008E0000E702A050D02095BAF90EF64DD7020AB3E
:1008F0000FAA10A911850E82850D837435120E334F
:100900007F35121129050EE50E7002050D804CAFE2
:1009100090EF64BD7020AB0FAA10A911850E8285DF
:100920000D837436120E337F36121129050EE50E33
:100930007029050D8025AF90EF647D701EAB0FAA66
:1009400010A911850E82850D83742A120E337F2A19
:10095000121129050EE50E7002050D7590FBAF9082
:10096000EF64EB7021AB0FAA10A911850E82850DE3
:10097000837431120E337F31121129050EE50E708A
:100980002A050D0209F9AF90EF64DB7020AB0FAAC6
:1009900010A911850E82850D837432120E337F32B9
:1009A000121129050EE50E7002050D804CAF90EF77
:1009B00064BB7020AB0FAA10A911850E82850D8330
:1009C0007433120E337F33121129050EE50E702990
:1009D000050D8025AF90EF647B701EAB0FAA10A9A8
:1009E00011850E82850D83742D120E337F2D121109
:1009F00029050EE50E7002050D7590F7AF90EF64B6
:100A0000E77021AB0FAA10A911850E82850D8374A2
:100A100043120E337F43121129050EE50E702A058D
:100A20000D020816AF90EF64D77021AB0FAA10A982
:100A300011850E82850D837430120E337F301211B2
:100A400029050EE50E7002050D020816AF90EF6441
:100A5000B77021AB0FAA10A911850E82850D837482
:100A60003D120E337F3D121129050EE50E70020571
:100A70000D020816AF90EF64776003020816AB0F03
:100A8000AA10A911850E82850D83742B120E337F57
:100A90002B121129050EE50E7002050D020816E550
:100AA0000E6404450D6003020816781A7C00FDFBF5
:100AB0007A007908120FD3EF3395E04F70667FC844
:100AC000FE1210D47F011211357BFF7A1079921239
:100AD00010FF7FC11211357BFF7A1079A61210FF2B
:100AE0007FC0121135D2B2C2B37590FBAF90EF64E4
:100AF000EB70AC7FC8FE1210D47F011211357BFF62
:100B00007A1079B51210FF7FC87E001210D4E4F578
:100B10000DF50E7F13121135E4FFFE120B53121068
:100B2000F9020A9F7FC01211357BFF7A1079C21239
:100B300010FF7F647E001210D47F01121135121055
:100B4000F9E4F50DF50EC2B2C2B37F64FE1210D403
:030B5000020A9FF7
:100FFC00020800E493A3F8E493A34003F68001F203
:10100C0008DFF48029E493A3F85407240CC8C333F5
:10101C00C4540F4420C8834004F456800146F6DFC4
:10102C00E4800B0102040810204080901153E47EF0
:10103C00019360BCA3FF543F30E509541FFEE493B9
:10104C00A360010ECF54C025E060A840B8E493A380
:10105C00FAE493A3F8E493A3C8C582C8CAC583CAAB
:10106C00F0A3C8C582C8CAC583CADFE9DEE780BE63
:01115E000090
:100E1A00BB010689828A83E0225002E722BBFE02D6
:090E2A00E32289828A83E4932209
:100E3300F8BB010DE58229F582E5833AF583E8F0F5
:100E4300225006E92582C8F622BBFE05E92582C8A1
:020E5300F22289
:100E5500E3F5F009E208B5F06D606B80F3E3F5F0BA
:100E650009E608B5F060605E80F387F009E608B52D
:100E7500F054605280F487F009E208B5F048604606
:100E850080F488828C8387F009E0A3B5F03860365A
:100E950080F488828C8387F009E493A3B5F02760FA
:100EA5002580F388828C83E3F5F009E0A3B5F0167D
:100EB500601480F388828C83E3F5F009E493A3B58D
:100EC500F004600280F2020F80808580E7808E80CA
:100ED500D2803C8015806C807E809B80B5808B8025
:100EE500A1804F8070803A020F8C89828A83ECFA48
:100EF500E493F5F0A3C8C582C8CCC583CCE493A31D
:100F0500C8C582C8CCC583CCB5F070606E80E18958
:100F1500828A83E493F5F0A3E208B5F05E605C8015
:100F2500F289828A83E0F5F0A3E608B5F04D604BBF
:100F350080F389828A83E0F5F0A3E208B5F03C608E
:100F45003A80F389828A83E493F5F0A3E608B5F045
:100F55002A602880F2805389828A83ECFAE493F52B
:100F6500F0A3C8C582C8CCC583CCE0A3C8C582C8D8
:100F7500CCC583CCB5F004600280E27FFFB5F002FA
:100F85000F2240027F012289828A83ECFAE0F5F084
:100F9500A3C8C582C8CCC583CCE0A3C8C582C8CCCC
:100FA500C583CCB5F0D560D380E389828A83ECFA1A
:100FB500E0F5F0A3C8C582C8CCC583CCE493A3C82B
:100FC500C582C8CCC583CCB5F0B160AF80E288F0EE
:100FD500ED2402B4040050A3F582EB2402B404000E
:0B0FE50050992323458223900ECE7309
:00000001FF
