:03000000020FF3F9
:0C0FF300787FE4F6D8FD75812002103AEA
:10107F004E2D50617373776F72642D0050617373CF
:10108F00776F72642D00436F7272656374200A006C
:10109F005072657373203120746F2072657365749D
:1010AF002070617373776F7264004E2D506173738C
:1010BF00776F72642D2D00496E636F727265637462
:0110CF000020
:0B115500051A3132333400021F000085
:0610D000D2B17F017E0099
:1010D600E4FDFCC3ED9FEE6480F8EC648098501448
:1010E600E4FBFA0BBB00010AEBF44A70F60DBD00F7
:0410F600010C80DF8A
:0110FA0022D3
:101124007437120E367F371211617FC87E00121099
:03113400D67F065D
:0A1137008FA0C2B01210D0C2B12286
:0A1161008FA0D2B01210D0C2B1224C
:0610FB007BFF7A10798BE7
:101101008B178A188919AB17AA18A919120E1DFF76
:10111100601012116174012519F519E43518F518DB
:0311210080E42245
:101141007F011211377F381211377F0E1211377F4D
:0411510080021137D0
:040B5A008E128F1355
:100B5E0075140075150075161A1211417BFF7A1067
:100B6E00797F121101E4F51EC3E5139404E51264B6
:100B7E008094804003020DFF7590FEAF90EF64EEFF
:100B8E00701AAB14AA15A916851382851283121139
:100B9E00240513E51370020512020C1DAF90EF64CD
:100BAE00DE7020AB14AA15A91685138285128374E4
:100BBE0038120E367F3812112B0513E513705005BF
:100BCE0012804CAF90EF64BE7020AB14AA15A9161C
:100BDE008513828512837439120E367F3912112BCA
:100BEE000513E513702905128025AF90EF647E7012
:100BFE001EAB14AA15A916851382851283742F12A3
:100C0E000E367F2F12112B0513E513700205127588
:100C1E0090FDAF90EF64ED7021AB14AA15A9168567
:100C2E0013828512837434120E367F3412112B0503
:100C3E0013E513702A0512020CBBAF90EF64DD7042
:100C4E0020AB14AA15A9168513828512837435124A
:100C5E000E367F3512112B0513E513700205128027
:100C6E004CAF90EF64BD7020AB14AA15A916851376
:100C7E00828512837436120E367F3612112B0513AF
:100C8E00E513702905128025AF90EF647D701EABC1
:100C9E0014AA15A916851382851283742A120E368C
:100CAE007F2A12112B0513E513700205127590FBA6
:100CBE00AF90EF64EB7021AB14AA15A916851382C1
:100CCE008512837431120E367F3112112B0513E506
:100CDE0013702A0512020D59AF90EF64DB7020AB32
:100CEE0014AA15A9168513828512837432120E3634
:100CFE007F3212112B0513E51370020512804CAFD3
:100D0E0090EF64BB7020AB14AA15A91685138285CB
:100D1E0012837433120E367F3312112B0513E51323
:100D2E00702905128025AF90EF647B701EAB14AA5C
:100D3E0015A916851382851283742D120E367F2DFA
:100D4E0012112B0513E513700205127590F7AF9073
:100D5E00EF64E77021AB14AA15A9168513828512CC
:100D6E00837443120E367F4312112B0513E5137055
:100D7E002A0512020B76AF90EF64D77021AB14AA3E
:100D8E0015A9168513828512837430120E367F30A4
:100D9E0012112B0513E51370020512020B76AF909C
:100DAE00EF64B77021AB14AA15A9168513828512AC
:100DBE0083743D120E367F3D12112B0513E5137011
:100DCE00020512020B76AF90EF64776003020B768A
:100DDE00AB14AA15A916851382851283742B120ED5
:100DEE00367F2B12112B0513E51370020512020B21
:100DFE0076E513640445126003020B767F64FE12DF
:0E0E0E0010D67F01121137C2B2C2B3E4FEFF4C
:010E1C0022B3
:10080000E4F50DF50EF50F75100075110812114184
:100810001210FBE4F50CC3E50E9404E50D6480941E
:10082000804003020A9F7590FEAF90EF64EE701A4D
:10083000AB0FAA10A911850E82850D831211240514
:100840000EE50E7002050D0208BDAF90EF64DE707C
:1008500020AB0FAA10A911850E82850D8374381262
:100860000E367F3812112B050EE50E7050050D80E7
:100870004CAF90EF64BE7020AB0FAA10A911850E8B
:1008800082850D837439120E367F3912112B050EB5
:10089000E50E7029050D8025AF90EF647E701EABCC
:1008A0000FAA10A911850E82850D83742F120E36A2
:1008B0007F2F12112B050EE50E7002050D7590FDB0
:1008C000AF90EF64ED7021AB0FAA10A911850E82D5
:1008D000850D837434120E367F3412112B050EE50C
:1008E0000E702A050D02095BAF90EF64DD7020AB3E
:1008F0000FAA10A911850E82850D837435120E364C
:100900007F3512112B050EE50E7002050D804CAFE0
:1009100090EF64BD7020AB0FAA10A911850E8285DF
:100920000D837436120E367F3612112B050EE50E2E
:100930007029050D8025AF90EF647D701EAB0FAA66
:1009400010A911850E82850D83742A120E367F2A16
:1009500012112B050EE50E7002050D7590FBAF9080
:10096000EF64EB7021AB0FAA10A911850E82850DE3
:10097000837431120E367F3112112B050EE50E7085
:100980002A050D0209F9AF90EF64DB7020AB0FAAC6
:1009900010A911850E82850D837432120E367F32B6
:1009A00012112B050EE50E7002050D804CAF90EF75
:1009B00064BB7020AB0FAA10A911850E82850D8330
:1009C0007433120E367F3312112B050EE50E70298B
:1009D000050D8025AF90EF647B701EAB0FAA10A9A8
:1009E00011850E82850D83742D120E367F2D121106
:1009F0002B050EE50E7002050D7590F7AF90EF64B4
:100A0000E77021AB0FAA10A911850E82850D8374A2
:100A100043120E367F4312112B050EE50E702A0588
:100A20000D020816AF90EF64D77021AB0FAA10A982
:100A300011850E82850D837430120E367F301211AF
:100A40002B050EE50E7002050D020816AF90EF643F
:100A5000B77021AB0FAA10A911850E82850D837482
:100A60003D120E367F3D12112B050EE50E7002056C
:100A70000D020816AF90EF64776003020816AB0F03
:100A8000AA10A911850E82850D83742B120E367F54
:100A90002B12112B050EE50E7002050D020816E54E
:100AA0000E6404450D6003020816781A7C00FDFBF5
:100AB0007A007908120FD6EF3395E04F706D7F649E
:100AC000FE1210D67F011211377BFF7A1079951232
:100AD00011017F2C7E011210D67F801211377BFF0F
:100AE0007A10799F1211017FC0121137D2B2C2B3AE
:100AF0007590FBAF90EF64EB70A57FC8FE1210D627
:100B00007F011211377BFF7A1079B91211017FC86A
:100B10007E001210D6E4F50DF50E7F13121137E4A6
:100B2000FFFE120B5A1210FB020A9F7FC0121137F0
:100B30007BFF7A1079C61211017F647E001210D6F5
:100B40007F011211371210FBE4F50DF50EC2B2C28F
:0A0B5000B37F64FE1210D6020A9F64
:100FFF00020800E493A3F8E493A34003F68001F200
:10100F0008DFF48029E493A3F85407240CC8C333F2
:10101F00C4540F4420C8834004F456800146F6DFC1
:10102F00E4800B0102040810204080901155E47EEB
:10103F00019360BCA3FF543F30E509541FFEE493B6
:10104F00A360010ECF54C025E060A840B8E493A37D
:10105F00FAE493A3F8E493A3C8C582C8CAC583CAA8
:10106F00F0A3C8C582C8CAC583CADFE9DEE780BE60
:01116000008E
:100E1D00BB010689828A83E0225002E722BBFE02D3
:090E2D00E32289828A83E4932206
:100E3600F8BB010DE58229F582E5833AF583E8F0F2
:100E4600225006E92582C8F622BBFE05E92582C89E
:020E5600F22286
:100E5800E3F5F009E208B5F06D606B80F3E3F5F0B7
:100E680009E608B5F060605E80F387F009E608B52A
:100E7800F054605280F487F009E208B5F048604603
:100E880080F488828C8387F009E0A3B5F038603657
:100E980080F488828C8387F009E493A3B5F02760F7
:100EA8002580F388828C83E3F5F009E0A3B5F0167A
:100EB800601480F388828C83E3F5F009E493A3B58A
:100EC800F004600280F2020F83808580E7808E80C4
:100ED800D2803C8015806C807E809B80B5808B8022
:100EE800A1804F8070803A020F8F89828A83ECFA42
:100EF800E493F5F0A3C8C582C8CCC583CCE493A31A
:100F0800C8C582C8CCC583CCB5F070606E80E18955
:100F1800828A83E493F5F0A3E208B5F05E605C8012
:100F2800F289828A83E0F5F0A3E608B5F04D604BBC
:100F380080F389828A83E0F5F0A3E208B5F03C608B
:100F48003A80F389828A83E493F5F0A3E608B5F042
:100F58002A602880F2805389828A83ECFAE493F528
:100F6800F0A3C8C582C8CCC583CCE0A3C8C582C8D5
:100F7800CCC583CCB5F004600280E27FFFB5F002F7
:100F88000F2240027F012289828A83ECFAE0F5F081
:100F9800A3C8C582C8CCC583CCE0A3C8C582C8CCC9
:100FA800C583CCB5F0D560D380E389828A83ECFA17
:100FB800E0F5F0A3C8C582C8CCC583CCE493A3C828
:100FC800C582C8CCC583CCB5F0B160AF80E288F0EB
:100FD800ED2402B4040050A3F582EB2402B404000B
:0B0FE80050992323458223900ED17303
:00000001FF
