:03000000020FF7F5
:0C0FF700787FE4F6D8FD75812002103EE2
:101083004E2D50617373776F72642D0050617373CB
:10109300776F72642D00436F7272656374200A0068
:1010A3005072657373203120746F20726573657499
:1010B3002070617373776F7264004E2D5061737388
:1010C300776F72642D2D00496E636F72726563745E
:0110D300001C
:0B115900051A3132333400021F000081
:0610D400D2B17F017E0095
:1010DA00E4FDFCC3ED9FEE6480F8EC648098501444
:1010EA00E4FBFA0BBB00010AEBF44A70F60DBD00F3
:0410FA00010C80DF86
:0110FE0022CF
:101128007437120E3A7F371211657FC87E0012108D
:03113800DA7F0655
:0A113B008FA0C2B01210D4C2B1227E
:0A1165008FA0D2B01210D4C2B12244
:0610FF007BFF7A10798FDF
:101105008B178A188919AB17AA18A919120E21FF6E
:10111500601012116574012519F519E43518F518D3
:0311250080E42241
:101145007F0112113B7F3812113B7F0E12113B7F3D
:041155008002113BC8
:040B5A008E128F1355
:100B5E00C2B2C2B375140075150075161A1211457E
:100B6E007BFF7A107983121105E4F51EC3E5139409
:100B7E0004E512648094804003020E037590FEAF6C
:100B8E0090EF64EE701AAB14AA15A9168513828520
:100B9E0012831211280513E51370020512020C219F
:100BAE00AF90EF64DE7020AB14AA15A916851382E0
:100BBE008512837438120E3A7F3812112F0513E501
:100BCE001370500512804CAF90EF64BE7020AB14C2
:100BDE00AA15A9168513828512837439120E3A7FCF
:100BEE003912112F0513E513702905128025AF90C8
:100BFE00EF647E701EAB14AA15A91685138285129A
:100C0E0083742F120E3A7F2F12112F0513E51370D6
:100C1E000205127590FDAF90EF64ED7021AB14AA32
:100C2E0015A9168513828512837434120E3A7F34F9
:100C3E0012112F0513E513702A0512020CBFAF9087
:100C4E00EF64DD7020AB14AA15A9168513828512E8
:100C5E00837435120E3A7F3512112F0513E513707A
:100C6E00020512804CAF90EF64BD7020AB14AA1534
:100C7E00A9168513828512837436120E3A7F3612A8
:100C8E00112F0513E513702905128025AF90EF641F
:100C9E007D701EAB14AA15A9168513828512837456
:100CAE002A120E3A7F2A12112F0513E51370020530
:100CBE00127590FBAF90EF64EB7021AB14AA15A9DF
:100CCE00168513828512837431120E3A7F311211FA
:100CDE002F0513E513702A0512020D5DAF90EF6418
:100CEE00DB7020AB14AA15A91685138285128374A6
:100CFE0032120E3A7F3212112F0513E513700205D0
:100D0E0012804CAF90EF64BB7020AB14AA15A916DD
:100D1E008513828512837433120E3A7F3312112F8C
:100D2E000513E513702905128025AF90EF647B70D3
:100D3E001EAB14AA15A916851382851283742D1263
:100D4E000E3A7F2D12112F0513E513700205127541
:100D5E0090F7AF90EF64E77021AB14AA15A9168532
:100D6E0013828512837443120E3A7F4312112F059C
:100D7E0013E513702A0512020B7AAF90EF64D77049
:100D8E0021AB14AA15A9168513828512837430120D
:100D9E000E3A7F3012112F0513E513700205120261
:100DAE000B7AAF90EF64B77021AB14AA15A9168514
:100DBE001382851283743D120E3A7F3D12112F0558
:100DCE0013E51370020512020B7AAF90EF64776091
:100DDE0003020B7AAB14AA15A9168513828512830A
:100DEE00742B120E3A7F2B12112F0513E51370027E
:100DFE000512020B7AE513640445126003020B7AA6
:100E0E007F64FE1210DA7F0112113BC2B2C2B3E44C
:020E1E00FEFFD5
:010E200022AF
:10080000E4F50DF50EF50F75100075110812114580
:100810001210FFE4F50CC3E50E9404E50D6480941A
:10082000804003020A9F7590FEAF90EF64EE701A4D
:10083000AB0FAA10A911850E82850D831211280510
:100840000EE50E7002050D0208BDAF90EF64DE707C
:1008500020AB0FAA10A911850E82850D8374381262
:100860000E3A7F3812112F050EE50E7050050D80DF
:100870004CAF90EF64BE7020AB0FAA10A911850E8B
:1008800082850D837439120E3A7F3912112F050EAD
:10089000E50E7029050D8025AF90EF647E701EABCC
:1008A0000FAA10A911850E82850D83742F120E3A9E
:1008B0007F2F12112F050EE50E7002050D7590FDAC
:1008C000AF90EF64ED7021AB0FAA10A911850E82D5
:1008D000850D837434120E3A7F3412112F050EE504
:1008E0000E702A050D02095BAF90EF64DD7020AB3E
:1008F0000FAA10A911850E82850D837435120E3A48
:100900007F3512112F050EE50E7002050D804CAFDC
:1009100090EF64BD7020AB0FAA10A911850E8285DF
:100920000D837436120E3A7F3612112F050EE50E26
:100930007029050D8025AF90EF647D701EAB0FAA66
:1009400010A911850E82850D83742A120E3A7F2A12
:1009500012112F050EE50E7002050D7590FBAF907C
:10096000EF64EB7021AB0FAA10A911850E82850DE3
:10097000837431120E3A7F3112112F050EE50E707D
:100980002A050D0209F9AF90EF64DB7020AB0FAAC6
:1009900010A911850E82850D837432120E3A7F32B2
:1009A00012112F050EE50E7002050D804CAF90EF71
:1009B00064BB7020AB0FAA10A911850E82850D8330
:1009C0007433120E3A7F3312112F050EE50E702983
:1009D000050D8025AF90EF647B701EAB0FAA10A9A8
:1009E00011850E82850D83742D120E3A7F2D121102
:1009F0002F050EE50E7002050D7590F7AF90EF64B0
:100A0000E77021AB0FAA10A911850E82850D8374A2
:100A100043120E3A7F4312112F050EE50E702A0580
:100A20000D020816AF90EF64D77021AB0FAA10A982
:100A300011850E82850D837430120E3A7F301211AB
:100A40002F050EE50E7002050D020816AF90EF643B
:100A5000B77021AB0FAA10A911850E82850D837482
:100A60003D120E3A7F3D12112F050EE50E70020564
:100A70000D020816AF90EF64776003020816AB0F03
:100A8000AA10A911850E82850D83742B120E3A7F50
:100A90002B12112F050EE50E7002050D020816E54A
:100AA0000E6404450D6003020816781A7C00FDFBF5
:100AB0007A007908120FDAEF3395E04F706D7F649A
:100AC000FE1210DA7F0112113B7BFF7A1079991226
:100AD00011057F2C7E011210DA7F8012113B7BFF03
:100AE0007A1079A31211057FC012113BD2B2C2B3A2
:100AF0007590FBAF90EF64EB70A57FC8FE1210DA23
:100B00007F0112113B7BFF7A1079BD1211057FC85E
:100B10007E001210DAE4F50DF50E7F1312113BE49E
:100B2000FFFE120B5A1210FF020A9F7FC012113BE8
:100B30007BFF7A1079CA1211057F647E001210DAE9
:100B40007F0112113B1210FFE4F50DF50EC2B2C287
:0A0B5000B37F64FE1210DA020A9F60
:10100300020800E493A3F8E493A34003F68001F2FB
:1010130008DFF48029E493A3F85407240CC8C333EE
:10102300C4540F4420C8834004F456800146F6DFBD
:10103300E4800B0102040810204080901159E47EE3
:10104300019360BCA3FF543F30E509541FFEE493B2
:10105300A360010ECF54C025E060A840B8E493A379
:10106300FAE493A3F8E493A3C8C582C8CAC583CAA4
:10107300F0A3C8C582C8CAC583CADFE9DEE780BE5C
:01116400008A
:100E2100BB010689828A83E0225002E722BBFE02CF
:090E3100E32289828A83E4932202
:100E3A00F8BB010DE58229F582E5833AF583E8F0EE
:100E4A00225006E92582C8F622BBFE05E92582C89A
:020E5A00F22282
:100E5C00E3F5F009E208B5F06D606B80F3E3F5F0B3
:100E6C0009E608B5F060605E80F387F009E608B526
:100E7C00F054605280F487F009E208B5F0486046FF
:100E8C0080F488828C8387F009E0A3B5F038603653
:100E9C0080F488828C8387F009E493A3B5F02760F3
:100EAC002580F388828C83E3F5F009E0A3B5F01676
:100EBC00601480F388828C83E3F5F009E493A3B586
:100ECC00F004600280F2020F87808580E7808E80BC
:100EDC00D2803C8015806C807E809B80B5808B801E
:100EEC00A1804F8070803A020F9389828A83ECFA3A
:100EFC00E493F5F0A3C8C582C8CCC583CCE493A316
:100F0C00C8C582C8CCC583CCB5F070606E80E18951
:100F1C00828A83E493F5F0A3E208B5F05E605C800E
:100F2C00F289828A83E0F5F0A3E608B5F04D604BB8
:100F3C0080F389828A83E0F5F0A3E208B5F03C6087
:100F4C003A80F389828A83E493F5F0A3E608B5F03E
:100F5C002A602880F2805389828A83ECFAE493F524
:100F6C00F0A3C8C582C8CCC583CCE0A3C8C582C8D1
:100F7C00CCC583CCB5F004600280E27FFFB5F002F3
:100F8C000F2240027F012289828A83ECFAE0F5F07D
:100F9C00A3C8C582C8CCC583CCE0A3C8C582C8CCC5
:100FAC00C583CCB5F0D560D380E389828A83ECFA13
:100FBC00E0F5F0A3C8C582C8CCC583CCE493A3C824
:100FCC00C582C8CCC583CCB5F0B160AF80E288F0E7
:100FDC00ED2402B4040050A3F582EB2402B4040007
:0B0FEC0050992323458223900ED573FB
:00000001FF
